P36196UKR1AY4804HAL201705014153201705
LAY4804415315083937360011000041595750000041979451    00002355571800002367127402500A0360082080     042720427200002363966003912204780000000000000201704  00007000000000000001070820300000000000020170424NJ Lenders Corp DBA Homeowners13N000041595750000023555718          025000000075507060000000000000000000000000002018050100000000000012500000625500000512NNN02     0000010757471201705                          20180501
LAY4804415315083937370011000009696000000009834532    00000381272000000434934102625A0360073        044380443800000384381104078204415000000000000201703  00001600000000000000000000000000000000020170327Liberty Home Equity Solutions 13N000009696000000003812720          026250000054851910000000000000000000000000002018040100000000000012500000160000000512NNN02     0000000000000201705                          20180401
LAY4804415315083937380011000014580000000014703046    00000184260400000193156502000A0360088        038030380300000185377503443204400000000000000201704  00002000000000000000000000000000000000020170403SEFCU Services LLC            15N000014580000000001842604          020000000049114660000000000000000000750000002018050100000489087112500000200000000512NNN02     0000000000000201705                          20180501
LAY4804415315083937390011000021730000000021935980    00000639277500000643498402625A0360062        044240442400000642639104064204945000000000000201704  00004100000000000000344193300000000000020170413QUONTIC BANK                  13N000021730000000006392775          026250000120427900000000000000000000000000002018050100000000000012500000410000000512NNN02     0000003458206201705                          20180501
LAY4804415315083937400011000026497200000026720643    00000301533600000303263102000A0360075        037990379900000302857903439204320000000000000201704  00004260000000000000394177300000000000020170414Seacoast Family Mortgage LLC D13N000026497200000003015336          020000000197296560000000000000000000000000002018050100000000000012500000426000000512NNN02     0000003958356201705                          20180501
LAY4804415315083937410011000018067500000018219041    00000926736900000956424702000A0360080083     037720377200000930139103412204280000000000000201704  00002750000000000000242249500000000000020170419Mountain America Federal Credi13N000018067500000009267369          020000000062221610000000000000000000000000002018050100000000000012500000275000000512NNN02     0000002432633201705                          20180501
LAY4804415315083937420011000010137600000010231641    00000432407500000436060602500A0360074070     043030430300000435478303943204900000000000000201704  00001760000000000000256368900000000000020170329Perl Mortgage Inc             13N000010137600000004324075          025000000032954840000000000000000000000000002018040100000000000012500000176000000512NNN02     0000002575551201705                          20180401
LAY4804415315083937430014000011521000000011632099    00000691260000000694804602750A0360067067     045220452200000693876904162205030000000000000201704  00002050000000000000000000000000000000020170424Bank of the Pacific           13N000011521000000006912600          027500000046840530000000000000000000000000002018050100000000000012500000205000000512NNN02     0000000000000201705                          20180501
LAY4804415315083937440011000017292000000017452408    00000374305700000377582402500A0360062        043030430300000377078203943204900000000000000201704  00003300000000000000000000000000000000020170328Liberty Home Equity Solutions 13N000017292000000003743057          025000000136765840000000000000000000000000002018040100000000000012500000330000000512NNN02     0000000000000201705                          20180401
LAY4804415315083937450011000011628200000011726316    00000684412100000689196002000A0360062        038020380200000688275303442204370000000000000201704  00002194000000000000000000000000000000020170405America First Federal Credit U13N000011628200000006844121          020000000048343560000000000000000000000000002018050100000000000012500000219400000512NNN02     0000000000000201705                          20180501
LAY4804415315083937460011000012034400000012145955    00000722064000000726726002500A0360077074     042990429900000725866003939204870000000000000201704  00001960000000000000000000000000000000020170411Liberty Home Equity Solutions 13N000012034400000007220640          025000000048786950000000000000000000000000002018050100000000000012500000196000000512NNN02     0000000000000201705                          20180501
LAY4804415315083937470011000004188800000004229382    00000251328000000253064102750A0360078076     045490454900000252726304189205130000000000000201704  00000680000000000000000000000000000000020170411Liberty Home Equity Solutions 13N000004188800000002513280          027500000016987410000000000000000000000000002018050100000000000012500000068000000512NNN02     0000000000000201705                          20180501
LAY4804415315083937480011000019584000000019769638    00001958400000001970412902625A0360070        044240442400001967781604064204995000000000000201704  00003400000000000000000000000000000000020170417Liberty Home Equity Solutions 13N000019584000000019584000          026250000000655090000000000000000000000000002018050100000000000012500000340000000512NNN02     0000000000000201705                          20180501
LAY4804415315083937490014000025804800000026049534    00000980163000001380212702625A0360069        044270442700000986238304067205035000000000000201704  00004480000000000000000000000000568125020170407New Home Finance LLC DBA Retir13N000025804800000009801630          026250000122474070000000000000000000000000002018050100000000000012500000448000000512NNN02     0000000000000201705                          20180501
LAY4804415315083937500011000018920080000019103480    00001864685700001878466902750A0360071        045520455200001876256204192205120000000000000201704  00003331000000000000000000000000000000020170407Sam Calvano                   13N000018920080000018646857          027500000003188110000000000000000000000000002018050100000000000012500000333100000512NNN02     0000000000000201705                          20180501
LAY4804415315083937510011000027768800000028003106    00002289189200002305190302000A0360082        038020380200002302110403442204370000000000000201704  00004120000000000000311007800000000000020170404Mountain America Federal Credi13N000027768800000022891892          020000000018280320000000000000000000000000002018050100000000000012500000412000000512NNN02     0000003123171201705                          20180501
LAY4804415315083937520014000012232000000012347395    00000286672500000338234402625A0360067        043970439700000287725904037204905000000000000201704  00002200000000000000000000000000000000020170424Liberty Home Equity Solutions 13N000012232000000002866725          026250000089650510000000000000000000000000002018050100000000000012500000220000000512NNN02     0000000000000201705                          20180501
LAY4804415315083937530011000032637000000032944891    00001443565100001450807102625A0360084        043970439700001448869704037205005000000000000201704  00004730000000000000498736200000000000020170424Liberty Home Equity Solutions 13N000032637000000014435651          026250000134259920000000000000000000000000002018050100000000000012500000473000000512NNN02     0000005010828201705                          20180501
LAY4804415315083937540011000033231000000033560133    00003004648600003031751602875A0360072        046780467800003027703904318205075000000000000201704  00005700000000000000000000000000000000020170331Cardinal Mortgage Corp        13N000033231000000030046486          028750000032426170000000000000000000000000002018040100000000000012500000570000000512NNN02     0000000000000201705                          20180401
LAY4804415315083937550011000035688015000036096387    00003575163000003599176502750A0360070067     045220452200003594370704162205060000000000000201704  00009500000000000000000000000000000000020170418Nations Financial of New York 33N000035751630000035751630          027500000001046220000000000000000000000000002018050100000000000012500000636150000512NNN02     0000000000000201705                          20180501
LAY4804415315083937560011000022191000000022406143    00000557429600000562440602750A0360069        045530455300000561689604193205050000000000000201704  00003900000000000000000000000000000000020170330NJ Lenders Corp DBA Homeowners13N000022191000000005574296          027500000167817370000000000000000000000000002018040100000000000012500000390000000512NNN02     0000000000000201705                          20180401
LAY4804415315083937570011000043894350000044319908    00002576044200002620293602750A0360084        045530455300002595730904193205000000000000000201704  00007000000000000000393224700000000000020170329First American Home Loans Inc 13N000043894350000025760442          027500000143880270000000000000000000000000002018040100000000000012500000636150000512NNN02     0000003728945201705                          20180401
LAY4804415315083937580011000019626800000019817411    00001962680000001980668002750A0360066        045630456300001978023404203205000000000000000201704  00003530000000000000000000000000000000020170327Caliber Home Loans Inc        13N000019626800000019626800          027500000000107310000000000000000000000000002018040100000000000012500000353000000512NNN02     0000000000000201705                          20180401
LAY4804415315083937590011000017654100000017817838    00000041320000000066652602500A0360088086     043020430200000041563003942204870000000000000201704  00002490000008500000000000000000000000020170407American Financial Funding Cor12N000000000000000000000000          025000000000000000000000000000000002492030842018050100000000000012500000249000000512NNN02     0000000000000201705                          20180501
LAY4804415315083937600011000023213300000023747609    00002321330000002363977402500A0360062        042240422400002360820103864204880000000000000201701  00004600000000000000000000000000000000020170131Land/Home Financial Services  33N000023213300000023213300          025000000001078350000000000000000000000000002018020100000000000012500000449000000512NYN02     0000000000000201705                          20180201
LAY4804415315083937610011000021280000000021583770    00000614970300000621678802625A0360081082     044330443300000620848604073205025000000000000201703  00003200000000000000000000000000000000020170313Cardinal Mortgage Corp        13N000021280000000006149703          026250000153669820000000000000000000000000002018040100000000000012500000320000000512NNN02     0000000000000201705                          20180401
LAY4804415315083937620011000012839640000012982371    00000669580100000674315202500A0360069066     043020430200000673414603942204870000000000000201704  00002343000000000000000000000000000000020170410Liberty Home Equity Solutions 13N000012863070000006695801          025000000062392190000000000000000000000000002018050100000000000012500000234300000512NNN02     0000000000000201705                          20180501
LAY4804415315083937630014000020389500000020587143    00001822352300001901900502750A0360074071     045520455200001834241504192205000000000000000201704  00003450000000000000000000000000000000020170406Perl Mortgage Inc             13N000020389500000018223523          027500000015681380000000000000000000000000002018050100000000000012500000345000000512NNN02     0000000000000201705                          20180501
LAY4804415315083937640014000034097640000034419311    00000841368700000845589602625A0360064064     043970439700000844460404037204995000000000000201704  00006850000000000001011215000000000000020170424Liberty Home Equity Solutions 13N000034097640000008413687          026250000158036870000000000000000000000000002018050100000000000012500000636150000512NNN02     0000010159728201705                          20180501
LAY4804415315083937650011000008460900000008587232    00000757965500000766364302875A0360069        046930469300000765341104333205125000000000000201703  00001530000000000000000000000000000000020170320PEOPLES HOME EQUITY INC       13N000008460900000007579655          028750000009235890000000000000000000000000002018040100000000000012500000153000000512NNN02     0000000000000201705                          20180401
LAY4804415315083937660012000029657000000029944477    00002314114500002332695802750A0360076085     045520455200002329581204192205060000000000000201704  00004700000000000000000000000000000000020170404Liberty Home Equity Solutions 13N000029657000000023141145          027500000066175190000000000000000000000000002018050100000000000012500000470000000512NNN02     0000000000000201705                          20180501
LAY4804415315083937670011000043162500000043838797    00002589750000002629247603250A0360099        049850498500002625738304625204930000000000000201703  00005755000000000000000000000000000000020170227Greenway Mortgage Funding Corp13N000043162500000025897500          032500000175463210000000000000000000000000002018030100000000000012500000575500000512NNN02     0000000000000201705                          20180301
LAY4804415315083937680011000028301000000028569408    00002249077500002286106002625A0360076        044270442700002263017804067205025000000000000201704  00004550000000000000000000000000000000020170406Liberty Home Equity Solutions 13N000028301000000022490775          026250000057083480000000000000000000000000002018050100000000000012500000455000000512NNN02     0000000000000201705                          20180501
LAY4804415315083937690014000014045000000014178204    00000819858100000825786502625A0360062        044270442700000824683904067204995000000000000201704  00002650000000000000372652500000000000020170410Liberty Home Equity Solutions 13N000014045000000008198581          026250000021761880000000000000000000000000002018050100000000000012500000265000000512NNN02     0000003744151201705                          20180501
LAY4804415315083937700011000019770800000019958307    00000977233400000984757902625A0360077075     044270442700000983595504067204995000000000000201704  00003220000000000000000000000000000000020170405Liberty Home Equity Solutions 13N000019770800000009772334          026250000101107280000000000000000000000000002018050100000000000012500000322000000512NNN02     0000000000000201705                          20180501
LAY4804415315083937710012000017490000000017655789    00000183770000000202449102625A0360071        044240442400000184650304064205005000000000000201704  00003000000012000000000000000000000000020170414Banc of California National As14N000017490000000001837700          026250000000151090000000000000000001747051192018050100000001503812500000300000000512NNN02     0000000000000201705                          20180501
LAY4804415315083937720011000010842000000010944282    00000330592500000332251002625A0360067        043970439700000331807304037204995000000000000201704  00001950000000000000000000000000000000020170424Liberty Home Equity Solutions 13N000010842000000003305925          026250000076217720000000000000000000000000002018050100000000000012500000195000000512NNN02     0000000000000201705                          20180501
LAY4804415315083937730014000009928800000010020388    00000779640100000783464802500A0360080071     042720427200000782418403912205010000000000000201704  00001680000000000000000000000000000000020170424Liberty Home Equity Solutions 23N000009928800000007796401          025000000021857400000000000000000000000000002018050100000000000012500000168000000512NNN02     0000000000000201705                          20180501
LAY4804415315083937740011000006569800000006630403    00000650301200000653491302500A0360075        042720427200000652618503912204900000000000000201704  00001070000000000000000000000000000000020170424Liberty Home Equity Solutions 13N000006569800000006503012          025000000000954900000000000000000000000000002018050100000000000012500000107000000512NNN02     0000000000000201705                          20180501
LAY4804415315083937750011000013132000000013253730    00000127885000000133733602500A0360063        042990429900000128538803939204880000000000000201704  00002450000030000000000000000000000000020170413Investment Resources Inc      14N000013132000000001278850          025000000041869260000000000000000000500002992018050100000416765412500000245000000512NNN02     0000000000000201705                          20180501
LAY4804415315083937760011000005796000000005849465    00000059152500000059478702500A0360062        042720427200000059399203912204900000000000000201704  00001260000000000000000000000000015500020170418Liberty Home Equity Solutions 13N000005796000000000591525          025000000050996780000000000000000000000000002018050100000000000012500000126000000512NYN02     0000000000000201705                          20180501
LAY4804415315083937770011000018864000000019038958    00000342930300000662730702500A0360065        043020430200000629149603942204870000000000000201704  00003600000000000000969165200000291213320170407Liberty Home Equity Solutions 13N000018864000000003429303          025000000000896840000000000000000000000000002018050100000000000012500000360000000512NYN02     0000009409834201705                          20180501
LAY4804415315083937780011000011200000000011310855    00000672000000000676413402875A0360069        046740467400000675510404314205185000000000000201704  00002000000000000000000000000000000000020170414Universal American Mortgage Co23N000011200000000006720000          028750000045467210000000000000000000000000002018050100000000000012500000200000000512NNN02     0000000000000201705                          20180501
LAY4804415315083937790011000017319500000017572417    00001039170000001049262202750A0360091        045630456300001047861204203205070000000000000201703  00002350000000000000000000000000000000020170327Peoples Home Equity Inc       13N000017319500000010391700          027500000070797950000000000000000000000000002018040100000000000012500000235000000512NNN02     0000000000000201705                          20180401
LAY4804415315083937800014000018488400000018667956    00000473910000000478253402750A0360081081     045630456300000477614804203205150000000000000201704  00002840000000000000000000000000000000020170327Mohave State Bank             13N000018488400000004739100          027500000138854220000000000000000000000000002018040100000000000012500000284000000512NNN02     0000000000000201705                          20180401
LAY4804415315083937810011000028985000000029253877    00000290823800000293192002500A0360082        043030430300000292800403943204900000000000000201704  00004250000000000000888794500000000000020170403Lakeland Bank                 13N000028985000000002908238          025000000173928870000000000000000000000000002018050100000000000012500000425000000512NNN02     0000008929070201705                          20180501
LAY4804415315083937820011000020460000000020654044    00001861479100001872903502625A0360083        044270442700001870402504067204995000000000000201704  00003000000000000000184520900000000000020170406Banc of California National As13N000020460000000018614791          026250000000710720000000000000000000000000002018050100000000000012500000300000000512NNN02     0000001853937201705                          20180501
LAY4804415315083937830011000004383600000004424234    00000255739900000257430302500A0360068        042990429900000257086503939204910000000000000201704  00000780000000000000000000000000000000020170412Fairway Independent Mortgage C13N000004383600000002557399          025000000018499310000000000000000000000000002018050100000000000012500000078000000512NNN02     0000000000000201705                          20180501
LAY4804415315083937840011000017806000000017955348    00000496944900000504115902000A0360075077     037720377200000498495003412204370000000000000201704  00002900000000000000398675800000000000020170424East Boston Savings Bank      15N000017806000000004969449          020000000008788160000000000000000000493360002018050100000087515312500000290000000512NNN02     0000004003443201705                          20180501
LAY4804415315083937850014000021812400000022019306    00001061414700001070252502625A0360080083     044280442800001068823404068205025000000000000201704  00003320000000000000000000000000000000020170403Liberty Home Equity Solutions 13N000021812400000010614147          026250000113167810000000000000000000000000002018050100000000000012500000332000000512NNN02     0000000000000201705                          20180501
LAY4804415315083937860011000031864000000032164599    00003186400000003203871102625A0360076068     043970439700003199592804037204995000000000000201704  00005600000000000000000000000000000000020170420Barron Funding Group Inc      13N000031864000000031864000          026250000001258880000000000000000000000000002018050100000000000012500000560000000512NNN02     0000000000000201705                          20180501
LAY4804415315083937870011000023903000000024134741    00001897366200001914119402750A0360070        045530455300001911563704193204930000000000000201704  00004100000000000000319561400000000000020170330Senior Advantage Association  13N000023903000000018973662          027500000017824820000000000000000000000000002018040100000000000012500000410000000512NNN02     0000003211065201705                          20180401
LAY4804415315083937880011000007244300000007350089    00000430408000000435889302750A0360072069     045630456300000434007704203205130000000000000201703  00001310000000000000000000000000004250020170327Banc of California National As13N000007244300000004304080          027500000029616960000000000000000000000000002018040100000000000012500000131000000512NNN02     0000000000000201705                          20180401
LAY4804415315083937890011000023056000000023268680    00001127349500001146925102500A0360062        042720427200001132051303912204810000000000000201704  00004400000000000001178250500000000000020170418Guild Mortgage Company        13N000023056000000011273495          025000000000958490000000000000000000000000002018050100000000000012500000440000000512NNN02     0000011703580201705                          20180501
LAY4804415315083937900011000015033600000015178571    00000902016000000906641402750A0360079        045220452200000905430804162205030000000000000201704  00002320000000000000000000000000000000020170424Liberty Home Equity Solutions 23N000015033600000009020160          027500000061121570000000000000000000000000002018050100000000000012500000232000000512NNN02     0000000000000201705                          20180501
LAY4804415315083937910011000038360000000038931792    00000356406800000360992802875A0360084        046830468300000360510904323205175000000000000201703  00005600000000000000000000000000000000020170308Synergy One Lending Inc DBA Re13N000038360000000003564068          028750000353218640000000000000000000000000002018040100000000000012500000560000000512NNN02     0000000000000201705                          20180401
LAY4804415315083937920012000031753000000032045906    00003175300000003190876902500A0360068        042720427200003186615403912205010000000000000201704  00005650000000000000000000000000000000020170424Liberty Home Equity Solutions 23N000031753000000031753000          025000000001371370000000000000000000000000002018050100000000000012500000565000000512NNN02     0000000000000201705                          20180501
LAY4804415315083937930011000012865990000012984672    00000558789900000561531102500A0360088        042720427200000560781203912205030000000000000201704  00001741000000000000000000000000015500020170424Liberty Home Equity Solutions 23N000012865990000005587899          025000000072143610000000000000000000000000002018050100000000000012500000174100000512NNN02     0000000000000201705                          20180501
LAY4804415315083937940011000009864000000009959615    00000054291600000054718802750A0360084        045520455200000054645704192205120000000000000201704  00001440000000000000000000000000000000020170406Evolve Bank & Trust           13N000009864000000000542916          027500000094124270000000000000000000000000002018050100000000000012500000144000000512NNN02     0000000000000201705                          20180501
LAY4804415315083937950011000020867500000021074145    00000734801600000740589402875A0360062062     046770467700000739600604317205245000000000000201704  00004250000000000000000000000000000000020170407New Castle Mortgage LLC       13N000020867500000007348016          028750000136682510000000000000000000000000002018050100000000000012500000425000000512NNN02     0000000000000201705                          20180501
LAY4804415315083937960011000024186000000024414166    00001451160000001458440002625A0360068067     043970439700001456492504037204945000000000000201704  00004350000000000000000000000000000000020170424John Andersch LLC DBA All Sea 13N000024186000000014511600          026250000098297660000000000000000000000000002018050100000000000012500000435000000512NNN02     0000000000000201705                          20180501
LAY4804415315083937970011000033270645000033650460    00003333426000003362223902625A0360073062     044280442800003357734204068205025000000000000201704  00007100000000000000000000000000000000020170331Great Florida Lending Inc     13N000033334260000033334260          026250000000282210000000000000000000000000002018040100000000000012500000636150000512NNN02     0000000000000201705                          20180401
LAY4804415315083937980011000012529000000012650449    00000409798800000412827502750A0360090        045520455200000412276204192205150000000000000201704  00001700000000000000000000000000003500020170410Peoples Home Equity Inc       13N000012529000000004097988          027500000084871740000000000000000000000000002018050100000000000012500000170000000512NNN02     0000000000000201705                          20180501
LAY4804415315083937990011000023780300000023999662    00000413000000000415026002500A0360072075     042720427200000414471803912204900000000000000201704  00003970000000000000000000000000000000020170424Summit Mortgage Corporation DB13N000023780300000004130000          025000000198494020000000000000000000000000002018050100000000000012500000397000000512NNN02     0000000000000201705                          20180501
LAY4804415315083938000011000019125000000019301419    00000764422300000768172302500A0360093        042720427200000767146403912204870000000000000201704  00002550000000000000000000000000000000020170424Lakeland Bank                 13N000019125000000007644223          025000000116196960000000000000000000000000002018050100000000000012500000255000000512NNN02     0000000000000201705                          20180501
LAY4804415315083938010011000014975000000015116271    00000873848400000878232202625A0360073        043970439700000877059504037204995000000000000201704  00002500000000000000000000000000000000020170424The PrivateBank and Trust Comp13N000014975000000008738484          026250000063339490000000000000000000000000002018050100000000000012500000250000000512NNN02     0000000000000201705                          20180501
LAY4804415315083938020014000021683800000021888361    00000806338700000810383902625A0360075073     043970439700000809301704037205025000000000000201704  00003620000000000000000000000000000000020170424Liberty Home Equity Solutions 23N000021683800000008063387          026250000137845220000000000000000000000000002018050100000000000012500000362000000512NNN02     0000000000000201705                          20180501
LAY4804415315083938030011000011454500000011550575    00000182368400000183182002000A0360088        037720377200000182937303412204370000000000000201704  00001550000000000000000000000000000000020170424Univest Bank and Trust Co     13N000011454500000001823684          020000000097187550000000000000000000000000002018050100000000000012500000155000000512NNN02     0000000000000201705                          20180501
LAY4804415315083938040014000029545000000029829906    00002450331200002462895902750A0360076075     045220452200002459607404162205030000000000000201704  00004750000000000000000000000000000000020170424Omni-Fund Inc                 23N000029545000000024503312          027500000052009470000000000000000000000000002018050100000000000012500000475000000512NNN02     0000000000000201705                          20180501
LAY4804415315083938050014000012838000000012956424    00000412492800000414516402500A0360069062     042720427200000413962803912204820000000000000201704  00002450000000000000000000000000000000020170424Pacific Community Credit Union13N000012838000000004124928          025000000088112600000000000000000000000000002018050100000000000012500000245000000512NNN02     0000000000000201705                          20180501
LAY4804415315083938060011000014472000000014608526    00000080862000000081267702625A0360069063     043970439700000081159104037205025000000000000201704  00002700000000000000000000000000000000020170424iReverse Home Loans LLC       13N000014472000000000808620          026250000137958490000000000000000000000000002018050100000000000012500000270000000512NNN02     0000000000000201705                          20180501
LAY4804415315083938070011000016032500000016187103  0900000961950000000966424202750A0360070        045220452200000965546004162205030000000000000201704  00002750000000000000000000000000000000020170424America First Financial Corpor13N000016032500000009619500          027500000065228610000000000000000000000000002018050100000000000012500000275000000512NNN02     0000000000000201705                          20180501
LAY4804415315083938080011000017030000000017273316    00001703000000001719718402625A0360063062     044380443800001717422004078204945000000000000201703  00003250000000000000000000000000000000020170324Banc of California National As13N000017030000000017030000          026250000000761320000000000000000000000000002018040100000000000012500000325000000512NNN02     0000000000000201705                          20180401
LAY4804415315083938090014000011607600000011717706    00001048701600001057761502625A0360068        044280442800001056349004068205025000000000000201704  00002040000000000000000000000000000000020170331Np Inc DBA US Mortgage of Flor23N000011607600000010487016          026250000011400910000000000000000000000000002018040100000000000012500000204000000512NNN02     0000000000000201705                          20180401
LAY4804415315083938100011000023255200000023479454  0900002256148200002266641802750A0360085        045220452200002264582004162205030000000000000201704  00003280000000000000000000000000000000020170424First American Home Loans Inc 23N000023255200000022561482          027500000008130360000000000000000000000000002018050100000000000012500000328000000512NNN02     0000000000000201705                          20180501
LAY4804415315083938110011000045598950000046264832    00000414783200000438907102750A0360088        045630456300000418252304203204950000000000000201703  00006750000000000000000000000000000000020170327Synergy One Lending Inc DBA Re15N000045598950000004147832          027500000213747740000000000000000002000000002018040100002127173012500000625500000512NNN02     0000000000000201705                          20180401
LAY4804415315083938120011000046224450000046914053    00000119912000000121141002875A0360089        046880468800000120979304328205055000000000000201703  00012500000000000000165204900000000000020170324Synergy One Lending Inc DBA Re13N000046224450000001199120          028750000440342050000000000000000000000000002018040100000000000012500000625500000512NNN02     0000001668438201705                          20180401
LAY4804415315083938130011000032430000000032893344    00001864300000001882015502625A0360083        044380443800001879502304078204995000000000000201703  00004700000000000000000000000000081500020170327High Tech Lending Inc         13N000032430000000018643000          026250000132581890000000000000000000000000002018040100000000000012500000470000000512NNN02     0000000000000201705                          20180401
LAY4804415315083938140014000011052000000011153950    00001103200000001108611902500A0360074        042720427200001107131303912205030000000000000201704  00001800000000000000000000000000002000020170424Omni-Fund Inc                 23N000011052000000011032000          025000000000478310000000000000000000000000002018050100000000000012500000180000000512NNN02     0000000000000201705                          20180501
LAY4804415315083938150011000028119600000028386335    00002811960000002837131802625A0360080        044280442800002833343304068205025000000000000201704  00004280000000000000000000000000000000020170329Nationwide Equities Corporatio23N000028119600000028119600          026250000000150170000000000000000000000000002018040100000000000012500000428000000512NNN02     0000000000000201705                          20180401
LAY4804415315083938160011000014479500000014616097    00001339625700001346346302625A0360072        043970439700001344548404037204905000000000000201704  00002450000000000000000000000000008000020170424Approval First Home Loans Inc 13N000014479500000013396257          026250000010726340000000000000000000000000002018050100000000000012500000245000000512NNN02     0000000000000201705                          20180501
LAY4804415315083938170011000027088200000027350821    00002431461900002452930902750A0360074        045530455300002449655804193205060000000000000201704  00004470000000000000000000000000000000020170331Nationwide Equities Corporatio23N000027088200000024314619          027500000028215120000000000000000000000000002018040100000000000012500000447000000512NNN02     0000000000000201705                          20180401
LAY4804415315083938180011000036466650000036820196    00003187951000003376405002750A0360073        045530455300003211805504193205150000000000000201704  00013700000000000000281925200000000000020170331Synergy One Lending Inc DBA Re13N000036466650000031879510          027500000002232630000000000000000000000000002018040100000000000012500000625500000512NNN02     0000002832883201705                          20180401
LAY4804415315083938190011000040713600000041097684    00003445962900003463250302625A0360079078     043970439700003458625504037205025000000000000201704  00015000000000000000000000000000000000020170424Salem Five Mortgage Company LL13N000040713600000034459629          026250000064651810000000000000000000000000002018050100000000000012500000636150000512NNN02     0000000000000201705                          20180501
LAY4804415315083938200011000012000000000012113748    00000718000000000722404202625A0360091        044240442400000721439504064204945000000000000201704  00001600000000000000000000000000002000020170417Cofmar Financial Inc          13N000012000000000007180000          026250000048697060000000000000000000000000002018050100000000000012500000160000000512NNN02     0000000000000201705                          20180501
LAY4804415315083938210014000043130970000044062785    00000117405900000149484003000A0360086        047350473500000139248604375205410000000000000201702  00007000000000000000000000000000000000020170222Synergy One Lending Inc DBA Re15N000043194585000001174059          030000000321773070000000000000000001000000002018030100003201761912500000636150000512NNN02     0000000000000201705                          20180301
LAY4804415315083938220011000025360500000025601062    00002536050000002558355602625A0360070        044280442800002554939304068205035000000000000201704  00004350000000000000000000000000000000020170330Nationwide Equities Corporatio23N000025360500000025360500          026250000000175060000000000000000000000000002018040100000000000012500000435000000512NNN02     0000000000000201705                          20180401
LAY4804415315083938230011000013640000000013768678    00001107443900001113688302625A0360083083     043970439700001112201104037205025000000000000201704  00002000000000000000000000000000000000020170418Mohave State Bank             13N000013640000000011074439          026250000026317950000000000000000000000000002018050100000000000012500000200000000512NNN02     0000000000000201705                          20180501
LAY4804415315083938240011000013117500000013244675    00001114371600001130417902750A0360070        045530455300001122887904193205050000000000000201704  00002250000003600000000000000000000000020170330Nationwide Equities Corporatio22N000000000000000000000000          027500000000000000000000000000000000600000352018040100000000000012500000225000000512NNN02     0000000000000201705                          20180401
LAY4804415315083938250011000013344000000013470555    00001109821600001118367102625A0360071067     044270442700001116873704067204995000000000000201704  00002400000000000000000000000000000000020170406Universal Lending Corporation 13N000013344000000011098216          026250000022868840000000000000000000000000002018050100000000000012500000240000000512NNN02     0000000000000201705                          20180501
LAY4804415315083938260011000007804800000007918774    00000663313600000669755602750A0360065        045630456300000668861304203205060000000000000201703  00001440000000000000000000000000000000020170327Nationwide Equities Corporatio23N000007804800000006633136          027500000012212180000000000000000000000000002018040100000000000012500000144000000512NNN02     0000000000000201705                          20180401
LAY4804415315083938270011000034992000000035323924    00003065127500003092565602625A0360079        044280442800003088435904068205025000000000000201704  00005400000000000000000000000000000000020170328Nationwide Equities Corporatio23N000034992000000030651275          026250000043982680000000000000000000000000002018040100000000000012500000540000000512NNN02     0000000000000201705                          20180401
LAY4804415315083938280011000022154000000022364146    00002215400000002234539002625A0360076070     044280442800002231555104068205025000000000000201704  00003800000000000000000000000000000000020170331Nationwide Equities Corporatio23N000022154000000022154000          026250000000187560000000000000000000000000002018040100000000000012500000380000000512NNN02     0000000000000201705                          20180401
LAY4804415315083938290011000034100000000034414556    00000230980400000232113502500A0360082        042720427200000231803503912204870000000000000201704  00005000000000000000000000000000000000020170424Atlantic Home Loans Inc       13N000034100000000002309804          025000000320934210000000000000000000000000002018050100000000000012500000500000000512NNN02     0000000000000201705                          20180501
LAY4804415315083938300011000010811000000010912989    00001019331300001025078902625A0360068        043970439700001023710004037204905000000000000201704  00001900000000000000000000000000000000020170419Golden Age Financial Solutions23N000010811000000010193313          026250000006622000000000000000000000000000002018050100000000000012500000190000000512NNN02     0000000000000201705                          20180501
LAY4804415315083938310014000015960000000016113905    00000957600000000962510402750A0360083081     045220452200000961225204162205030000000000000201704  00002775000000000000000000000000000000020170424Omni-Fund Inc                 23N000015960000000009576000          027500000064888010000000000000000000000000002018050100000000000012500000240000000512NNN02     0000000000000201705                          20180501
LAY4804415315083938320011000036196935000036532652    00002840561300002861951002500A0360069        043020430200002858128903942204870000000000000201704  00007000000000000000000000000000000000020170405Land/Home Financial Services  13N000036196935000028405613          025000000079131420000000000000000000000000002018050100000000000012500000636150000512NNN02     0000000000000201705                          20180501
LAY4804415315083938330011000036578625000036933196    00001427907000001453193002750A0360072        045520455200001436995004192205150000000000000201704  00006700000000000000000000000000000000020170406High Tech Lending Inc         11N000000000000000000000000          027500000000000000000000000000000001420890002018050100000000000012500000636150000512NNN02     0000000000000201705                          20180501
LAY4804415315083938340011000020199500000020488100    00001817509300001847164002625A0360069        044380443800001838527004078205005000000000000201703  00003550000003600000000000000000000000020170327Nationwide Equities Corporatio22N000000000000000000000000          026250000000000000000000000000000000615000342018040100000000000012500000355000000512NNN02     0000000000000201705                          20180401
LAY4804415315083938350014000036598000000036945097    00001465256900001476539302625A0360078077     044270442700001474567604067205025000000000000201704  00005800000000000000000000000000000000020170406High Tech Lending Inc         13N000036598000000014652569          026250000221797040000000000000000000000000002018050100000000000012500000580000000512NNN02     0000000000000201705                          20180501
LAY4804415315083938360014000010627200000010779037    00001013253400001022881802625A0360078        044380443800001021515904078204875000000000000201703  00001640000000000000000000000000000000020170327Nationwide Equities Corporatio23N000010627200000010132534          026250000005502190000000000000000000000000002018040100000000000012500000164000000512NNN02     0000000000000201705                          20180401
LAY4804415315083938370011000030780000000031071971    00003078000000003104591202625A0360078        044280442800003100445504068205025000000000000201704  00004750000000000000000000000000000000020170331Nationwide Equities Corporatio23N000030780000000030780000          026250000000260590000000000000000000000000002018040100000000000012500000475000000512NNN02     0000000000000201705                          20180401
LAY4804415315083938380011000018967900000019244889    00001896790000001915211202750A0360068        045630456300001912654004203205150000000000000201703  00003430000000000000000000000000000000020170327Nationwide Equities Corporatio13N000018967900000018967900          027500000000927770000000000000000000000000002018040100000000000012500000343000000512NNN02     0000000000000201705                          20180401
LAY4804415315083938390011000007397000000007466782    00000375570100000384962302625A0360069        043970439700000376950204037205025000000000000201704  00001300000000000000000000000000000000020170424Mohave State Bank             13N000007397000000003755701          026250000036171590000000000000000000000000002018050100000000000012500000130000000512NNN02     0000000000000201705                          20180501
LAY4804415315083938400011000027324000000027594582    00002732400000002753475902875A0360071        046770467700002749799804317205245000000000000201704  00004950000000000000000000000000000000020170407High Tech Lending Inc         13N000027324000000027324000          028750000000598230000000000000000000000000002018050100000000000012500000495000000512NNN02     0000000000000201705                          20180501
LAY4804415315083938410011000047711250000048133550    00000438830900000456589402250A0360093        040490404900000440946803689204620000000000000201704  00007600000000000000106340500000000000020170413Open Mortgage LLC             15N000047711250000004388309          022500000334314900000000000000000001498750002018050100003328451112500000636150000512NNN02     0000001068100201705                          20180501
LAY4804415315083938420011000022176000000022390849    00002217600000002232564902750A0360075070     045490454900002229583904189205000000000000000201704  00003850000000000000000000000000000000020170413United Northern Mortgage Banke13N000022176000000022176000          027500000000652000000000000000000000000000002018050100000000000012500000385000000512NNN02     0000000000000201705                          20180501
LAY4804415315083938430011000037407000000037761582    00001124941900001132018002625A0360082        044240442400001130506404064205025000000000000201704  00005550000000000000000000000000000000020170414Open Mortgage LLC             13N000037407000000011249419          026250000264414020000000000000000000000000002018050100000000000012500000555000000512NNN02     0000000000000201705                          20180501
LAY4804415315083938440011000009507600000009597723    00000934451000000940474902625A0360066        044240442400000939219004064205025000000000000201704  00001710000000000000000000000000000000020170414Nationwide Equities Corporatio23N000009507600000009344510          026250000001929740000000000000000000000000002018050100000000000012500000171000000512NNN02     0000000000000201705                          20180501
LAY4804415315083938450011000012579000000012698237    00001190918300001198781402625A0360073        044240442400001197180604064205035000000000000201704  00002100000000000000000000000000000000020170413Nationwide Equities Corporatio23N000012579000000011909183          026250000007104230000000000000000000000000002018050100000000000012500000210000000512NNN02     0000000000000201705                          20180501
LAY4804415315083938460011000017856000000018025257    00001750189600001761472002625A0360070        044240442400001759119804064204995000000000000201704  00003100000000000000000000000000000000020170414Synergy One Lending Inc DBA Re23N000017856000000017501896          026250000004105370000000000000000000000000002018050100000000000012500000310000000512NNN02     0000000000000201705                          20180501
LAY4804415315083938470011000009460800000009548071    00000709411900000713215502500A0360079        042720427200000712263003912205010000000000000201704  00001460000000000000236668100000000000020170420Open Mortgage LLC DBA 1st Choi13N000009460800000007094119          025000000000383460000000000000000000000000002018050100000000000012500000146000000512NNN02     0000002377570201705                          20180501
LAY4804415315083938480011000016200000000016426348    00001620000000001635054902500A0360078        043130431300001632871403953205030000000000000201703  00002500000000000000000000000000000000020170327Nationwide Equities Corporatio23N000016200000000016200000          025000000000757990000000000000000000000000002018040100000000000012500000250000000512NNN02     0000000000000201705                          20180401
LAY4804415315083938490011000035123000000035461696    00002400285800002412593902750A0360092083     045220452200002409372504162205030000000000000201704  00005150000000000000000000000000000000020170421Golden Age Financial Solutions23N000035123000000024002858          027500000113357570000000000000000000000000002018050100000000000012500000515000000512NNN02     0000000000000201705                          20180501
T36196UKR1AY4804HAL2017050141532017050000114
P36197LCB4AZ7266HAL201705014132201705
LAZ7266413215084093620011000026243200000026492092    00002624320000002644117102630A0360068066     044270442700002640586304067204355000000000000201704  00004720000000000000000000000000000000020170301Quontic Bank                  33N000000050681000028729500          0263000000005092100000000000000000000000000020180501000000000000   00000472000000512NNN02     00000000000002017050000000079543000000005068120170601
LAZ7266413215084093630012000043385430000043803802    00001893713500001924186402750A0360083        045220452200001902084604162204355000000000000201704  00009050000000000000000000000000000000020170204Allied First Bank, SB         31N000000000000000000000000          027500000000000000000000000000000001946630002018050100000000000012500000636150000512NNN02     00000000000002017050000000092964000000000000020170601
LAZ7266413215084093640011000011358000000011465720    00000681480000000686620902630A0360076076     044270442700000685704004067204355000000000000201704  00001800000000000000000000000000000000020170313Quontic Bank                  33N000004577854000007780750          026300000045995110000000000000000000000000002018050100000000000012500000180000000512NNN02     00000000000002017050000000143442000000457785420170601
LAZ7266413215084093650011000014288800000014424316    00000923832400000930945802630A0360082        044270442700000929702704067204355000000000000201704  00002120000000000000000000000000000000020170216Fairway Independent Mortgage C33N000005090774000010479600          026300000051148580000000000000000000000000002018050100000000000012500000212000000512NNN02     00000000000002017050000000053269000000509077420170601
LAZ7266413215084093660011000017250000000017413600    00001028250000001036328202630A0360064        044270442700001034944404067204355000000000000201704  00003750000000000000006750000000006750020170313Quontic Bank                  33N000006949621000011740000          026300000069828180000000000000000000000000002018050100000000000012500000375000000512NNY02     00000000000002017050000000115865000000694962120170601
LAZ7266413215084093670011000021024000000021304490    00002065511700002084145602250A0360080079     040630406300002081361703703204355000000000000201703  00003200000000000000000000000000000000020170228Bank of England               33N000000460993000022195700          022500000004630340000000000000000000000000002018040100000000000012500000320000000512NNN02     00000000000002017050000000094490000000046099320170601
LAZ7266413215084093680012000018180000000018382876    00000824013100000831023303630A0360074        054270542700000829914505067204355000000000000201704  00003000000000000000015706800000015706820170131Fairway Independent Mortgage C33N000005121362000009743960          036300000051507320000000000000000000000000002018050100000000000012500000300000000512NNY02     00000047648432017050000000115792000000512136220170601
LAZ7266413215084093690011000042158700000042558535    00003211394400003232609102630A0360082        044270442700003228292504067204355000000000000201704  00007400000000000000000000000000000000020161111Finance of America Mortgage LL33N000008420475000033388800          026300000084603120000000000000000000000000002018050100000000000012500000625500000512NNN02     00000017721322017050000000101379000000842047520170601
LAZ7266413215084093700011000034097640000034421023    00002045858400002061291702630A0360064        044270442700002058539204067204355000000000000201704  00006550000000000000000000000000000000020170306Dennis M. Sanchez dba DS Consu33N000013743090000022806200          026300000138081060000000000000000000000000002018050100000000000012500000636150000512NNN02     00000000000002017050000000104308000001374309020170601
LAZ7266413215084093710011000021484000000021687791    00002148400000002167631802630A0360062        044280442800002164737304068204355000000000000201704  00004100000000000000000000000000000000020170301Southern Trust Mortgage, LLC  33N000000011419000023542900          026300000000114730000000000000000000000000002018040100000000000012500000410000000512NNN02     00000000000002017050000000114093000000001141920170601
LAZ7266413215084093720011000004495100000004538673    00000448080200000451535002750A0360069073     045520455200000450932104192204355000000000000201704  00000790000000000000000000000000000000020170112Responsible Life, Inc.        33N000000023211000004885190          027500000000233230000000000000000000000000002018050100000000000012500000079000000512NNN02     00000000000002017050000000095624000000002321120170601
LAZ7266413215084093730011000013760000000013947569    00001376000000001388682802380A0360078        041780417800001386828003818204355000000000000201703  00002190000000000000000000000000000000020170222Evolve Bank & Trust           23N000000060468000014847700          023800000000607410000000000000000000000000002018040100000000000012500000215000000512NNN02     00000000000002017050000000065885000000006046820170601
LAZ7266413215084093740011000017452800000017618236    00000996581100001003316802630A0360073        044240442400001001977004064204355000000000000201704  00002880000000000000000000000000000000020170130iReverse Home Loans, LLC      33N000002392218000011109400          026300000024035310000000000000000000000000002018050100000000000012500000288000000512NNN02     00000051815372017050000000066591000000239221820170601
LAZ7266413215084093750011000013008200000013131571    00001300820000001310633002630A0360082        044270442700001308882804067204355000000000000201704  00001930000000000000000000000000000000020170307Southern Trust Mortgage, LLC  33N000000025122000014240600          026300000000252410000000000000000000000000002018050100000000000012500000193000000512NNN02     00000000000002017050000000144569000000002512220170601
LAZ7266413215084093760011000005092000000005142424    00000305520000000307976202880A0360063        046770467700000307565104317204355000000000000201704  00000950000000000000000000000000000000020161215Reverse Mortgages.com, Inc.   33N000002052524000003565070          028800000020626620000000000000000000000000002018050100000000000012500000095000000512NNN02     00000000000002017050000000097356000000205252420170601
LAZ7266413215084093770011000027922000000028192659    00002162234500002182334402750A0360076        045520455200002176341104192204355000000000000201704  00004600000000000000000000000000000000020170305Finance of America Mortgage LL33N000003914477000024060300          027500000039332690000000000000000000000000002018050100000000000012500000460000000512NNN02     00000024360462017050000000067397000000391447720170601
LAZ7266413215084093780011000037935600000038271565    00003605796900003630146102250A0360074        040520405200003625297003692204355000000000000201704  00006260000000000000000000000000000000020170216KRS Capital Partners          33N000001961438000038320600          022500000019701040000000000000000000000000002018050100000000000012500000626000000512NNN02     00000000000002017050000000077187000000196143820170601
LAZ7266413215084093790011000009312500000009402723    00000267785300000269464102750A0360087078     045490454900000269104304189204355000000000000201704  00001490000000000000000000000000000000020170324Texas Reverse Mortgage, Inc.  33N000006675821000003026770          027500000067080820000000000000000000000000002018050100000000000012500000149000000512NNN02     00000000000002017050000000130502000000667582120170601
LAZ7266413215084093800011000017730000000017901864    00000847610000000854145202750A0360073        045520455200000853004704192204355000000000000201704  00003000000000000000000000000000000000020170326Goldwater Bank N.A.           33N000009315373000009778220          027500000093604120000000000000000000000000002018050100000000000012500000300000000512NNN02     00000000000002017050000000096481000000931537320170601
LAZ7266413215084093810011000029190000000029616261    00001068731200001079797902750A0360072067     045630456300001078356204203204355000000000000201703  00005250000000000000000000000000000000020170131LeaderOne Financial Corp      33N000018727563000012265000          027500000188182820000000000000000000000000002018040100000000000012500000525000000512NNN02     00000000000002017050000000109813000001872756320170601
LAZ7266413215084093820011000041095350000041484894    00002465721000002482386402630A0360080079     044240442400002479071504064204355000000000000201704  00007000000000000000000000000000000000020161201Sovereign Lending Group, Inc. 33N000016582623000027486600          026300000166610300000000000000000000000000002018050100000000000012500000625500000512NNN02     00000000000002017050000000072560000001658262320170601
LAZ7266413215084093830011000040141065000040513363    00002882333900002911193802500A0360077        043020430200002899280203942204355000000000000201704  00006600000012000000000000000000000000020170306C2 Financial Corporation      34N000004133297000031705700          025000000041524200000000000000000000800001192018050100000000000012500000636150000512NNN02     00000000000002017050000000065241000000413329720170601
LAZ7266413215084093840011000037596465000037945162    00002998311300003019514302500A0360072        043020430200003015481803942204355000000000000201704  00006450000000000000000000000000000000020170228AAA Northeast Bank            33N000007714327000032958500          025000000077500190000000000000000000000000002018050100000000000012500000636150000512NNN02     00000000000002017050000000082695000000771432720170601
LAZ7266413215084093850011000010335000000010482532    00000620100000000627351702630A0360062063     044330443300000626514004073204355000000000000201703  00001950000000000000000000000000000000020170104TowneBank Mortgage            33N000004189175000007099530          026300000042090150000000000000000000000000002018040100000000000012500000195000000512NNN02     00000000000002017050000000147367000000418917520170601
LAZ7266413215084093860011000005538500000005621126    00000493546000000498442602880A0360077074     046880468800000497777104328204355000000000000201703  00000950000000000000050000000000050000020170309Homeowners Mortgage Enterprise33N000000133566000005508810          028800000001367000000000000000000000000000002018040100000000000012500000095000000512NNY02     00000000000002017050000000122878000000013356620170601
LAZ7266413215084093870011000020217600000020410564    00001755876100001770586802660A0360070077     044630446300001768222504103204355000000000000201704  00003510000000000000006750000000006750020161116Resolute Bank                 33N000002624380000019353900          026600000026371960000000000000000000000000002018050100000000000012500000351000000512NNY02     00000000000002017050000000145541000000262438020170601
LAZ7266413215084093880011000035200000000035526294    00003088520800003108934902500A0360078078     042990429900003104782903939204355000000000000201704  00005500000000000000000000000000000000020170310Green Monarch Mortgage, Inc.  33N000004416523000033278800          025000000044369450000000000000000000000000002018050100000000000012500000550000000512NNN02     00000000000002017050000000096169000000441652320170601
LAZ7266413215084093890011000039059610000039429857    00003905961000003931750402630A0360074        044240442400003926500204064204355000000000000201704  00006255000000000000000000000000000000020170127Envoy Mortgage Ltd            33N000000111824000042291800          026300000001123530000000000000000000000000002018050100000000000005000000636150000512NNN02     00000000000002017050000000062940000000011182420170601
LAZ7266413215084093900011000031360000000031808056    00001881600000001899775902630A0360077        044380443800001897239004078204355000000000000201703  00004900000000000000000000000000000000020170118Point Mortgage Corporation    33N000012749863000021512800          026300000128102970000000000000000000000000002018040100000000000012500000490000000512NNN02     00000000000002017050000000136653000001274986320170601
LAZ7266413215084093910011000008162000000008230869    00000578027700000581746602000A0360070        038020380200000580969403442204355000000000000201704  00001400000000000000144250000000144250020161216AAA Northeast Bank            33N000000960784000006200790          020000000009709030000000000000000000000000002018050100000000000012500000140000000512NNY02     00000000000002017050000000116278000000096078420170601
LAZ7266413215084093920011000030690000000030987490    00002865736300002887831402750A0360083        045520455200002883975504192204355000000000000201704  00004500000000000000000000000000000000020170302Precise Investment Enterprise 33N000000136493000031243600          027500000001371530000000000000000000000000002018050100000000000012500000450000000512NNN02     00000019720232017050000000139112000000013649320170601
LAZ7266413215084093930011000022493000000022701654    00001970856000001987506802500A0360065        043030430300001984852503943204355000000000000201704  00004150000000000000004750000000004750020161101American Financial Network, In33N000002766066000021535700          025000000027790860000000000000000000000000002018040100000000000012500000415000000512NNY02     00000000000002017050000000067804000000276606620170601
LAZ7266413215084093940011000023439000000023670993    00001039403100001046060102880A0360077        046740467400001044663504314204355000000000000201704  00003900000000000000000000000000000000020170307Quontic Bank                  33N000013145497000012057200          028800000132103920000000000000000000000000002018050100000000000012500000390000000512NNN02     00000000000002017050000000077309000001314549720170601
LAZ7266413215084093950011000044466885000044925850    00002668013100002690823503130A0360090        049270492700002687231804567204355000000000000201704  00006255000000000000000000000000000000020170305East Coast Capital Corp       33N000017925344000031263000          031300000180176150000000000000000000000000002018050100000000000012500000636150000512NNN02     00000000000002017050000000147644000001792534420170601
LAZ7266413215084093960011000026939000000027190205    00001406370900001427419202530A0360083        043320433200001415341803972204355000000000000201704  00003950000000000000000000000000000000020161130Resolute Bank                 31N000000000000000000000000          025300000000000000000000000000000001013820002018050100000000000012500000395000000512NNN02     00000000000002017050000000067208000000000000020170601
LAZ7266413215084093970011000027664000000027926367    00001321255200001331222402630A0360081        044270442700001329444704067204355000000000000201704  00004160000000000000000000000000000000020170306Success Mortgage Partners, Inc33N000014545332000015133000          026300000146141430000000000000000000000000002018050100000000000005000000416000000512NNN02     00000000000002017050000000056298000001454533220170601
LAZ7266413215084093980011000021975000000022197213    00001754360600001768763103000A0360077083     048020480200001766401904442204355000000000000201704  00003750000000000000000000000000000000020170223Dyjero Corporation            33N000004486953000019780400          030000000045095820000000000000000000000000002018050100000000000012500000375000000512NNN02     00000000000002017050000000105480000000448695320170601
LAZ7266413215084093990011000027388000000027664950    00001643280000001656770703000A0360085        048020480200001654559004442204355000000000000201704  00004100000000000000000000000000000000020170313G.W. Golden Enterprises, Inc d33N000011041557000018684100          030000000110972430000000000000000000000000002018050100000000000012500000410000000512NNN02     00000000000002017050000000068948000001104155720170601
LAZ7266413215084094000011000034397000000034723280  0900003085496300003092067802630A0360071        044280442800003087924604068204355000000000000201704  00005900000000000000000000000000000000020170306United Mortgage Corp.         33N000003575196000033958700          026300000038026020000000000000000000000000002018040100000000000012500000590000000512NNN02     00000000000002017050000000133284000000357519620170601
LAZ7266413215084094010013000018912000000019091363    00001134720000001143280002630A0360072        044270442700001141753304067204355000000000000201704  00003200000000000000000000000000000000020170127Spectrum One Mortgage Corporat33N000007622502000012649300          026300000076585630000000000000000000000000002018050100000000000012500000320000000512NNN02     00000000000002017050000000147776000000762250220170601
LAZ7266413215084094020011000011677200000011790391    00001167720000001178215502750A0360065068     045520455200001176642304192204355000000000000201704  00002220000000000000000000000000000000020170309Pike Creek Mortgage Services, 23N000000008197000012824500          027500000000082360000000000000000000000000002018050100000000000012500000222000000512NNN02     00000000000002017050000000095316000000000819720170601
LAZ7266413215084094030011000003323100000003355295    00000053836900000054200202750A0360071        045490454900000054127804189204355000000000000201704  00000570000000000000037500000000037500020170206LeaderOne Financial Corp      33N000002424764000000624373          027500000024382930000000000000000000000000002018050100000000000012500000057000000512NNY02     00000000000002017050000000098679000000242476420170601
LAZ7266413215084094040012000023694600000023909284    00002369460000002386182902380A0360074        041740417400002382995903814204355000000000000201704  00003950000000000000000000000000000000020170314Village Realty and Home Loans,23N000000047241000025353200          023800000000474550000000000000000000000000002018050100000000000012500000391000000512NNN02     00000000000002017050000000132779000000004724120170601
LAZ7266413215084094050011000009517000000009605220    00000571020000000574794202500A0360075        042990429900000574026603939204355000000000000201704  000015500000000000000000000000000000000201703271st Reverse, Inc.             33N000003839523000006335470          025000000038572780000000000000000000000000002018050100000000000012500000155000000512NNN02     00000000000002017050000000148836000000383952320170601
LAZ7266413215084094060011000027990000000028255318    00002768724900002807356702630A0360075084     044240442400002783715904064204355000000000000201704  00004500000000000000000000000000000000020170316Green Monarch Mortgage, Inc.  33N000000379144000029978400          026300000001817510000000000000000000000000002018050100000000000012500000450000000512NNN02     00000000000002017050000000070082000000037914420170601
LAZ7266413215084094070011000024763200000025034394    00001449562000001463757903500A0360069064     053030530300001461804604943204355000000000000201704  00004620000000000000000000000000000000020170110ST Fin Corp Dba Star Financial33N000005501793000017245800          035000000055318400000000000000000000000000002018040100000000000012500000462000000512NNN02     00000048649752017050000000090098000000550179320170601
LAZ7266413215084094080011000022762000000022982640    00001365720000001375813502750A0360073073     045520455200001373976504192204355000000000000201704  00003800000000000000000000000000000000020170202Finance of America Mortgage LL33N000009180119000015326800          027500000092245050000000000000000000000000002018050100000000000012500000380000000512NNN02     00000000000002017050000000144285000000918011920170601
LAZ7266413215084094090011000015679200000015908164    00000168226700000186116002750A0360067085     045630456300000177768304203204355000000000000201703  00002820000000000000000000000000000000020170223Success Mortgage Partners, Inc35N000000505001000002114460          027500000005074470000000000000000000807150002018040100000000000012500000282000000512NNN02     00000000000002017050000000104423000000050500120170601
LAZ7266413215084094100011000033000000000033312974    00001980000000001995555402630A0360091        044270442700001992890604067204355000000000000201704  00004400000000000000000000000000000000020170302Brookstone Mortgage Corporatio33N000013294526000022072100          026300000133574200000000000000000000000000002018050100000000000012500000440000000512NNN02     00000000000002017050000000092386000001329452620170601
LAZ7266413215084094110011000028000000000028318185    00001680000000001693609803750A0360077        055490554900001691350405189204355000000000000201704  00005600000000000000000000000000000000020170217Homeowners Mortgage and Equity33N000011317961000019857600          037500000113820870000000000000000000000000002018050100000000000012500000560000000512NNN02     00000000000002017050000000070173000001131796120170601
LAZ7266413215084094120011000022500000000022713391    00001292032400001308459502630A0360096        044270442700001299839104067204355000000000000201704  00003000000000000000000000000000000000020170308Semper Home Loans, Inc        33N000007744363000014402900          026300000077807030000000000000000000000000002018050100000000000012500000300000000512NNN02     00000018480932017050000000058122000000774436320170601
LAZ7266413215084094130011000032316420000032798943    00001938985200001960470302880A0360062        046930469300001957852904333204355000000000000201703  00006255000000000000000000000000000000020170206United Mortgage Corp.         31N000000000000000000000000          028800000000000000000000000000000000000000002018040100000000000012500000636150000512NNN02     00000000000002017050000000123939000000000000020170601
LAZ7266413215084094140011000015456800000015600080    00000565499700000569064702500A0360066        042990429900000568304803939204355000000000000201704  00002780000000000000000000000000000000020170321Directors Mortgage            33N000009863821000006319460          025000000099094330000000000000000000000000002018050100000000000012500000278000000512NNN02     00000000000002017050000000133637000000986382120170601
LAZ7266413215084094150011000016744500000016903305    00001674450000001687604802630A0360067065     044270442700001685351304067204355000000000000201704  00003050000000000000000000000000000000020170223Fairway Independent Mortgage C33N000000027128000018335000          026300000000272570000000000000000000000000002018050100000000000012500000305000000512NNN02     00000000000002017050000000055453000000002712820170601
LAZ7266413215084094160011000022654000000023020576    00001324746200001338998703380A0360069        051880518800001337211904828204355000000000000201703  00004700000000000000000000000000000000020170223Hartford Funding, LTD.        33N000005699650000015738800          033800000057302290000000000000000000000000002018040100000000000012500000470000000512NNN02     00000039003602017050000000099060000000569965020170601
LAZ7266413215084094170011000004951300000004999295    00000359635700000362523402750A0360088        045520455200000362039304192204355000000000000201704  00000670000000000000024500000000024500020170221American Nationwide Mortgage C33N000001122450000004117820          027500000011290610000000000000000000000000002018050100000000000012500000067000000512NNY02     00000000000002017050000000085905000000112245020170601
LAZ7266413215084094180011000006890000000006955345    00000413400000000416583202630A0360062        044270442700000416026904067204355000000000000201704  00001300000000000000000000000000000000020170103Envoy Mortgage Ltd            33N000002776378000004608380          026300000027895130000000000000000000000000002018050100000000000012500000130000000512NNN02     00000000000002017050000000095109000000277637820170601
LAZ7266413215084094190011000008508000000008590471    00000414645500000442978902750A0360085        045520455200000417416804192204355000000000000201704  00001200000000000000000000000000000000020170227LeaderOne Financial Corp      33N000004389499000004784470          027500000041606820000000000000000000000000002018050100000000000012500000120000000512NNN02     00000000000002017050000000078885000000438949920170601
LAZ7266413215084094200011000017280000000017446634    00000194780500000346282602750A0360069073     045220452200000195641504162204355000000000000201704  00003000000000000000000000000000000000020170223Senior Reverse Mortgage Servic33N000015413464000002286910          027500000139838080000000000000000000000000002018050100000000000012500000300000000512NNN02     00000000000002017050000000083342000001541346420170601
LAZ7266413215084094210011000022909000000023129914    00001043497000001049179402750A0360088        045220452200001047778504162204355000000000000201704  00003100000000000000000000000000000000020170302Residential Mortgage Corporati33N000012577622000011829700          027500000126381200000000000000000000000000002018050100000000000012500000310000000512NNN02     00000000000002017050000000087508000001257762220170601
LAZ7266413215084094220011000011457600000011566264    00000687456000000692641902630A0360082        044270442700000691717004067204355000000000000201704  00001680000000000000000000000000000000020170302Reverse Mortgages.com, Inc.   33N000004617998000007917720          026300000046398450000000000000000000000000002018050100000000000012500000168000000512NNN02     00000000000002017050000000104847000000461799820170601
LAZ7266413215084094230011000008943000000009073594    00000894300000000903560502750A0360073064     045630456300000902354104203204355000000000000201703  00001650000000000000000000000000000000020170208Alpha Mortgage Corporation    33N000000037806000009871960          027500000000379890000000000000000000000000002018040100000000000012500000165000000512NNN02     00000000000002017050000000078986000000003780620170601
LAZ7266413215084094240011000028140000000028406739    00002259466400002274737602630A0360065063     044240442400002271700004064204355000000000000201704  00005250000000000000000000000000000000020170315James Edward Carlson dba Pathw33N000000087394000024464400          026300000000878090000000000000000000000000002018050100000000000012500000525000000512NNN02     00000055715542017050000000135290000000008739420170601
LAZ7266413215084094250011000028489600000028764329    00001043475600001061250602750A0360074        045220452200001047922704162204355000000000000201704  00004640000000000000000000000000000000020170303Trademark Lending dba Upfront 31N000000000000000000000000          027500000000000000000000000000000001187050002018050100000000000012500000464000000512NNN02     00000000000002017050000000095918000000000000020170601
LAZ7266413215084094260013000004768400000004813624    00000476840000000480511702630A0360064        044270442700000479870104067204355000000000000201704  00000910000000000000000000000000000000020161107Intercontinental Capital Group33N000000008467000005220750          026300000000085070000000000000000000000000002018050100000000000012500000091000000512NNN02     00000000000002017050000000139766000000000846720170601
LAZ7266413215084094270011000030549000000030838575    00003054900000003075547402630A0360073073     044240442400003071440404064204355000000000000201704  00005100000000000000000000000000000000020170329James Edward Carlson dba Pathw33N000000082710000033076900          026300000000831010000000000000000000000000002018050100000000000012500000510000000512NNN02     00000000000002017050000000081435000000008271020170601
LAZ7266413215084094280011000015637500000015789106    00000938250000000946834302750A0360085        045530455300000945570104193204355000000000000201704  00002250000000000000000000000000000000020170314United Mortgage Corp.         33N000006290344000010793400          027500000063207630000000000000000000000000002018040100000000000012500000225000000512NNN02     00000000000002017050000000135759000000629034420170601
LAZ7266413215084094290011000013769800000013902584    00000640355600000644046302750A0360078069     045220452200000643186304162204355000000000000201704  00002420000000000000000000000000000000020170330Quontic Bank                  33N000000060157000007378480          027500000000604450000000000000000000000000002018050100000000000012500000242000000512NNN02     00000074016762017050000000074314000000006015720170601
LAZ7266413215084094300011000019610000000019896365    00001519282600001534770402750A0360062        045630456300001532721204203204355000000000000201703  00003700000000000000000000000000000000020170206Loan Simple, Inc.             33N000004526732000016932400          027500000045486610000000000000000000000000002018040100000000000012500000370000000512NNN02     00000000000002017050000000122819000000452673220170601
LAZ7266413215084094310011000021440000000021643338    00001286400000001297310402630A0360063        044270442700001295578004067204355000000000000201704  00004000000000000000000000000000000000020170228Fairway Independent Mortgage C23N000008629410000014728900          026300000086702340000000000000000000000000002018050100000000000012500000400000000512NNN02     00000000000002017050000000130760000000862941020170601
LAZ7266413215084094320011000017013100000017174453    00001629367500001641913602630A0360069080     044270442700001639721004067204355000000000000201704  00002990000000000000000000000000000000020170322Finance of America Mortgage LL33N000000751761000017642000          026300000007553170000000000000000000000000002018050100000000000012500000299000000512NNN02     00000000000002017050000000127689000000075176120170601
LAZ7266413215084094330011000017416000000017578403  0900001321631400001324524602530A0360076079     043320433200001322753003972204355000000000000201704  00002800000000000000000000000000000000020161229Resolute Bank                 33N000004240275000014653900          025300000043331570000000000000000000000000002018050100000000000012500000280000000512NNN02     00000000000002017050000000069504000000424027520170601
LAZ7266413215084094340011000005962000000006018544    00000596200000000600883902630A0360065        044270442700000600081504067204355000000000000201704  00001100000000000000000000000000000000020170228Reverse Mortgages.com, Inc.   33N000000009659000006528300          026300000000097050000000000000000000000000002018050100000000000012500000110000000512NNN02     00000000000002017050000000056826000000000965920170601
LAZ7266413215084094350011000024486000000024718226    00002188851700002205363702630A0360071        044270442700002202418904067204355000000000000201704  00004200000000000000000000000000000000020170317Reverse Mortgage Educators, In33N000000054559000023699800          026300000026645890000000000000000000000000002018050100000000000012500000420000000512NNN02     00000000000002017050000000062759000000005455920170601
LAZ7266413215084094360011000041391000000041774960    00003949768100003982534202500A0360079        043030430300003977215603943204355000000000000201704  00006300000000000000000000000000000000020170117BM Real Estate Services Inc db33N000001940638000042773700          025000000019496180000000000000000000000000002018040100000000000012500000630000000512NNN02     00000000000002017050000000122163000000194063820170601
LAZ7266413215084094370011000012305000000012484689    00000738300000000745470302750A0360074072     045630456300000744474904203204355000000000000201703  00002140000000000000000000000000000000020170227Franklin First Financial, Ltd.33N000005005738000008502450          027500000050299860000000000000000000000000002018040100000000000012500000214000000512NNN02     00000000000002017050000000107516000000500573820170601
LAZ7266413215084094380011000010236310000010335020    00000073992000000082434402750A0360068        045220452200000074319104162204355000000000000201704  00001799000012000000000000000000000000020170127Atlantic Financial, Inc       34N000002371465000000839248          027500000023828720000000000000000000797811192018050100000000000012500000179900000512NNN02     00000000000002017050000000081210000000237146520170601
LAZ7266413215084094390011000011529000000011640755    00001152900000001161789002750A0360065        045520455200001160237804192204355000000000000201704  00002100000000000000000000000000000000020170215Finance of America Mortgage LL33N000000022755000012569500          027500000000228650000000000000000000000000002018050100000000000012500000210000000512NNN02     00000000000002017050000000142834000000002275520170601
LAZ7266413215084094400011000022509000000022726057    00000612159500000615493202750A0360065070     045220452200000614671304162204355000000000000201704  00004100000000000000000000000000000000020170316Kyle Patrick George           33N000016491800000006941980          027500000165711250000000000000000000000000002018050100000000000012500000410000000512NNN02     00000000000002017050000000146610000001649180020170601
LAZ7266413215084094410011000013468500000013601897    00001020081900001074929902880A0360079        046780467800001028075504318204355000000000000201704  00002050000000000000000000000000000000020170315Nationwide Equities Corp.     33N000003291140000011708400          028800000028525980000000000000000000000000002018040100000000000012500000205000000512NNN02     00000000000002017050000000055542000000329114020170601
LAZ7266413215084094420011000015876000000016026569    00001587600000001599576402630A0360079        044270442700001597440404067204355000000000000201704  00002450000000000000000000000000000000020170304Dyjero Corporation            33N000000030660000017189700          026300000000308050000000000000000000000000002018050100000000000012500000245000000512NNN02     00000000000002017050000000106595000000003066020170601
LAZ7266413215084094430011000030922500000031354552    00001855350000001872592102500A0360080        043130431300001870091303953204355000000000000201703  00004650000000000000000000000000000000020161201Broker Solutions, Inc. dba New33N000012570357000021063800          025000000126286310000000000000000000000000002018040100000000000012500000465000000512NNN02     00000000000002017050000000050829000001257035720170601
LAZ7266413215084094440011000005830000000005885263    00000274083200000275892702630A0360070        044240442400000275524404064204355000000000000201704  00001000000000000000000000000000000000020170320Bank of The James             33N000003111622000003075180          026300000031263360000000000000000000000000002018050100000000000012500000100000000512NNN02     00000000000002017050000000063939000000311162220170601
LAZ7266413215084094450011000035179095000035520158    00002110745700002129382902750A0360069        045530455300002126539704193204355000000000000201704  00007510000000000000000000000000000000020170302Intercontinental Capital Group33N000014157864000024270900          027500000142263290000000000000000000000000002018040100000000000012500000636150000512NNN02     00000000000002017050000000065308000001415786420170601
LAZ7266413215084094460011000014125500000014322862    00000847530000000855536602500A0360080080     043130431300000854394003953204355000000000000201703  00002150000000000000000000000000000000020170310United Mortgage Corp.         33N000005740883000009624010          025000000057674960000000000000000000000000002018040100000000000012500000215000000512NNN02     00000000000002017050000000142187000000574088320170601
LAZ7266413215084094470011000007664800000007739097    00000596973800000601385802750A0360064        045520455200000600582804192204355000000000000201704  00001430000000000000000000000000000000020170221Colonial Savings, F.A.        33N000001716938000006642830          027500000017252390000000000000000000000000002018050100000000000012500000143000000512NNN02     00000000000002017050000000119670000000171693820170601
LAZ7266413215084094480011000024560000000024792805    00001473600000001483559802630A0360084074     044240442400001481578704064204355000000000000201704  00004000000000000000000000000000000000020161117Geneva Financial, LLC         33N000009910348000016426200          026300000099572070000000000000000000000000002018050100000000000012500000400000000512NNN02     00000000000002017050000000122469000000991034820170601
LAZ7266413215084094490011000011625000000011737101    00000069296100000129780902750A0360090        045220452200000069602404162204355000000000000201704  00001550000000000000000000000000000000020170320ISB Mortgage Co., L.L.C.      33N000010987298000000785991          027500000104392920000000000000000000000000002018050100000000000012500000155000000512NNN02     00000000000002017050000000147437000001098729820170601
LAZ7266413215084094500011000037761000000038118938    00002768499300002787211002630A0360074        044240442400002783489004064204355000000000000201704  00006150000000000000000000000000000000020170321Senior Freedom Inc            33N000010198606000030598800          026300000102468280000000000000000000000000002018050100000000000012500000615000000512NNN02     00000000000002017050000000051892000001019860620170601
LAZ7266413215084094510011000013048600000013172900    00000995060600001002600202650A0360080063     044520445200001001261404092204355000000000000201704  00002462000000000000000000000000000000020170324Finance of America Mortgage LL23N000003132016000009950610          026500000031468980000000000000000000000000002018050100000000000012500000246200000512NNN02     00000000000002017050000000081471000000313201620170601
LAZ7266413215084094520011000013201000000013328985    00000737501900000743424702750A0360075        045530455300000742432004193204355000000000000201704  00002150000000000000000000000000000000020170307Finance of America Mortgage LL23N000000300028000007375020          027500000003014840000000000000000000000000002018050100000000000012500000215000000512NNN02     00000055932542017050000000074936000000030002820170601
LAZ7266413215084094530011000027312000000027571029    00002731200000002752656902630A0360068        044270442700002748981204067204355000000000000201704  00004800000000000000000000000000000000020170315Finance of America Mortgage LL33N000000044250000026936800          026300000000444600000000000000000000000000002018050100000000000012500000480000000512NNN02     00000000000002017050000000127694000000004425020170601
LAZ7266413215084094540011000004549600000004593701    00000272976000000274993502750A0360063        045520455200000274626304192204355000000000000201704  00000880000000000000000000000000000000020170126Finance of America Mortgage LL23N000001834894000002729760          027500000018437660000000000000000000000000002018050100000000000012500000088000000512NNN02     00000000000002017050000000077042000000183489420170601
LAZ7266413215084094550011000024390000000024621111    00001125956300001132333202650A0360065066     044220442200001130821104062204355000000000000201704  00004500000000000000000000000000000000020170101Finance of America Mortgage LL23N000000104784000010482200          026500000001052880000000000000000000000000002018050100000000000012500000450000000512NNN02     00000131924912017050000000063643000000010478420170601
LAZ7266413215084094560011000022493000000022707266    00001776026800001789483702650A0360069065     044520445200001787094204092204355000000000000201704  00004150000000000000000000000000000000020170210Finance of America Mortgage LL23N000004789670000017460300          026500000048124290000000000000000000000000002018050100000000000012500000415000000512NNN02     00000000000002017050000000071857000000478967020170601
LAZ7266413215084094570011000008321000000008400223    00000499260000000502649302650A0360063        044490444900000501978104089204355000000000000201704  00001570000000000000000000000000000000020170223Finance of America Mortgage LL23N000003357784000004992600          026500000033737300000000000000000000000000002018050100000000000012500000157000000512NNN02     00000000000002017050000000120863000000335778420170601
LAZ7266413215084094580011000013965000000014097328    00000590633300000593886102650A0360080080     044220442200000593093004062204355000000000000201704  00002100000000000000011500000000011500020170222Finance of America Mortgage LL23N000008005086000005906330          026500000080434670000000000000000000000000002018050100000000000012500000210000000512NNY02     00000000000002017050000000145608000000800508620170601
LAZ7266413215084094590011000011309600000011417334    00001130960000001139884302650A0360077064     044520445200001138362104092204355000000000000201704  00002110000000000000000000000000000000020170310Finance of America Mortgage LL23N000000018404000010682700          026500000000184910000000000000000000000000002018050100000000000012500000211000000512NNN02     00000000000002017050000000084919000000001840420170601
LAZ7266413215084094600011000005618000000005671489    00000281878900000283704002650A0360062        044490444900000283325204089204355000000000000201704  00001060000000000000000000000000000000020170320Finance of America Mortgage LL23N000000021840000002818790          026500000000219450000000000000000000000000002018050100000000000012500000106000000512NNN02     00000028125042017050000000125101000000002184020170601
LAZ7266413215084094610011000037860000000038220460  0900002271600000001286084202650A0360076        044490444900001283294804089204355000000000000201704  00006000000000000000000000000000000000020170322Finance of America Mortgage LL23N000015277695000022016000          026500000253596180000000000000000000000000002018050100000000000012500000600000000512NNN02     00000000000002017050000000095349000001527769520170601
LAZ7266413215084094620011000010925100000011026428    00000655506000000660341902500A0360065066     043020430200000659460003942204355000000000000201704  00001990000000000000000000000000000000020170327Finance of America Mortgage LL23N000004402639000006455060          025000000044230090000000000000000000000000002018050100000000000012500000199000000512NNN02     00000000000002017050000000082374000000440263920170601
LAZ7266413215084094630011000005300000000005350487    00000318000000000320509302650A0360063        044520445200000320081304092204355000000000000201704  00001000000000000000000000000000000000020170223Finance of America Mortgage LL23N000002135249000003180000          026500000021453940000000000000000000000000002018050100000000000012500000100000000512NNN02     00000000000002017050000000068609000000213524920170601
LAZ7266413215084094640011000012579000000012700723    00001112838600001121049102740A0360072        045420454200001119552204182204355000000000000201704  00002100000000000000000000000000000000020170321Finance of America Mortgage LL33N000001483074000010978400          027400000014902320000000000000000000000000002018050100000000000012500000210000000512NNN02     00000000000002017050000000114697000000148307420170601
LAZ7266413215084094650011000007862380000007936908    00000786238000000791920302630A0360067        044240442400000790862804064204355000000000000201704  00001480000000000000000000000000000000020170317Finance of America Mortgage LL23N000000017621000007862380          026300000000177050000000000000000000000000002018050100000000000012500000139900000512NNN02     00000000000002017050000000099014000000001762120170601
LAZ7266413215084094660011000011673500000011784701    00001016507400001023890402650A0360077        044520445200001022523204092204355000000000000201704  00001850000000000000000000000000000000020170315Finance of America Mortgage LL23N000001538487000009954570          026500000015457970000000000000000000000000002018050100000000000012500000185000000512NNN02     00000000000002017050000000140994000000153848720170601
LAZ7266413215084094670011000019695000000019882613    00001969500000001984422902650A0360073        044520445200001981773104092204355000000000000201704  00003250000000000000000000000000000000020170314Finance of America Mortgage LL33N000000038202000018745000          026500000000383840000000000000000000000000002018050100000000000012500000325000000512NNN02     00000000000002017050000000122848000000003820220170601
LAZ7266413215084094680011000028698705000028972087    00001721922300001734699002650A0360062        044520445200001732382604092204355000000000000201704  00005414850000000000000000000000000000020170315Finance of America Mortgage LL23N000011570119000016819200          026500000116250970000000000000000000000000002018050100000000000012500000541485000512NNN02     00000000000002017050000000118841000001157011920170601
T36197LCB4AZ7266HAL2017050141322017050000107
P36197LCD0AZ7268HAL201705014132201705
LAZ7268413215084417360011000004820800000004867288    00000278678400000280151702750A0360065        045220452200000279777604162204603000000000000201704  00000920000000000000000000000000000000020170313Dyjero Corporation            33N000000682153000003127470          027500000006854340000000000000000000000000002018050100000000000012500000092000000512NNN02     0000001380337201705                          20170601
LAZ7268413215084417370011000025767600000026017246    00001546056000001556489102750A0360074072     045490454900001554410904189204603000000000000201704  00004360000000000000000000000000000000020170307Reverse Mortgages.com, Inc.   33N000010402086000017922600          027500000104523550000000000000000000000000002018050100000000000012500000436000000512NNN02     0000000000000201705                          20170601
LAZ7268413215084417380011000010482500000010632269    00000628950000000635124502630A0360083073     044380443800000634276404078204603000000000000201703  00001750000000000000000000000000000000020170303Land Home Financial Services  33N000004260828000007257650          026300000042810240000000000000000000000000002018040100000000000012500000175000000512NNN02     0000000000000201705                          20170601
LAZ7268413215084417390011000009081200000009167342    00000625725000000631326302630A0360079075     044280442800000630483304068204603000000000000201704  00001460000000000000000000000000000000020170304Nationwide Equities Corp.     33N000002840637000007169680          026300000028540790000000000000000000000000002018040100000000000012500000146000000512NNN02     0000000000000201705                          20170601
LAZ7268413215084417400011000006529600000006592905    00000369696900000372843102750A0360071        045530455300000372345304193204603000000000000201704  00001120000000000000000000000000000000020170120Alpha Mortgage Corporation    33N000000369820000004253810          027500000003716110000000000000000000000000002018050100000000000012500000112000000512NNN02     0000002492863201705                          20170601
LAZ7268413215084417410011000020491500000020685842    00001000001600001007857802630A0360086        044270442700001006512004067204603000000000000201704  00002850000000000000000000000000000000020170302Norwich Commercial Group, Inc.33N000008621113000011408400          026300000086619000000000000000000000000000002018050100000000000012500000285000000512NNN02     0000001945364201705                          20170601
LAZ7268413215084417420011000011980000000012093558    00000079966800000092998202630A0360072073     044240442400000080374804064204603000000000000201704  00002000000012000000000000000000000000020170228Intercontinental Capital Group32N000000000000000000000000          026300000000000000000000000000000001245791192018050100000000000012500000200000000512NNN02     0000000000000201705                          20170601
LAZ7268413215084417430011000010697200000010798599    00001069720000001076615802630A0360069075     044240442400001075178204064204603000000000000201704  00001880000000000000000000000000000000020170310Dyjero Corporation            33N000000032288000011582400          026300000000324410000000000000000000000000002018050100000000000012500000188000000512NNN02     0000000000000201705                          20170601
LAZ7268413215084417440011000021303931000021505978    00002130393100002146797002630A0360063        044270442700002143930304067204603000000000000201704  00004130000000000000000000000000000000020170320Fairway Independent Mortgage C23N000000037829000023337800          026300000000380080000000000000000000000000002018050100000000000012500000412068300512NNN02     0000000000000201705                          20170601
LAZ7268413215084417450011000011543400000011657131    00000895021200000900291302880A0360073        046470464700000899089404287204603000000000000201704  00001980000000000000043500000000043500020170330C & E Financial Group, Inc.   33N000002206238000010025100          028800000022192180000000000000000000000000002018050100000000000012500000198000000512NNY02     0000000000000201705                          20170601
LAZ7268413215084417460012000013340160000013466679    00000753422500000758870602630A0360078070     044270442700000757857204067204603000000000000201704  00002316000000000000000000000000000000020170320Fairway Independent Mortgage C33N000005850296000008610370          026300000058779730000000000000000000000000002018050100000000000012500000231600000512NNN02     0000000000000201705                          20170601
LAZ7268413215084417470011000021109800000021296752    00001240888000001249629502250A0360086084     040520405200001247960303692204603000000000000201704  00003020000000000000025700000000025700020170228Loan Simple, Inc.             33N000008504745000013910700          022500000085434570000000000000000000000000002018050100000000000012500000302000000512NNY02     0000000000000201705                          20170601
LAZ7268413215084417480011000028858500000029132196    00002661405400002680650402630A0360070070     044270442700002677070804067204603000000000000201704  00004950000000000000000000000000000000020170315Intercontinental Capital Group33N000002314741000029145200          026300000023256920000000000000000000000000002018050100000000000012500000495000000512NNN02     0000000000000201705                          20170601
LAZ7268413215084417490011000030345000000030645498    00002474398200002497279402880A0360064        046770467700002490558304317204603000000000000201704  00005950000000000000000000000000000000020170320Skyline Financial Corp.       31N000000000000000000000000          028800000000000000000000000000000000337510002018050100000000000012500000595000000512NNN02     0000000000000201705                          20170601
LAZ7268413215084417500011000011229000000011335440    00000563945000000567756602630A0360072071     044240442400000566998504064204603000000000000201704  00001900000000000000021750000000021750020170308Evolve Bank & Trust           33N000005413747000006467550          026300000054403740000000000000000000000000002018050100000000000012500000190000000512NNY02     0000000000000201705                          20170601
LAZ7268413215084417510011000013615200000013743643    00000976575000000982081502630A0360065        043970439700000980770004037204603000000000000201704  00002480000000000000000000000000000000020170320Quontic Bank                  33N000000403094000010881400          026300000004049930000000000000000000000000002018050100000000000012500000248000000512NNN02     0000003517835201705                          20170601
LAZ7268413215084417520011000035102100000035442182    00003053572100003074178402750A0360089        045490454900003070073604189204603000000000000201704  00004835000000000000000000000000000000020161115DALE ERNEST TILLMAN           33N000003628251000033291600          027500000036457850000000000000000000000000002018050100000000000012500000483500000512NNN02     0000001054613201705                          20170601
LAZ7268413215084417530011000013303000000013428498    00000473850300000476522202630A0360069062     043970439700000475885804037204603000000000000201704  00002510000000000000000000000000000000020170310Senior Freedom Inc            33N000008622700000005320150          026300000086632760000000000000000000000000002018050100000000000012500000251000000512NNN02     0000000000000201705                          20170601
LAZ7268413215084417540011000021824000000022043590    00001309440000001317096803000A0360086        047720477200001315338504412204603000000000000201704  00003200000000000000000000000000000000020170319G.W. Golden Enterprises, Inc d33N000008828318000014888300          030000000088726220000000000000000000000000002018050100000000000012500000320000000512NNN02     0000000000000201705                          20170601
LAZ7268413215084417550011000034993500000035325204    00002099610000002112816902630A0360069069     044240442400002109995504064204603000000000000201704  00006150000000000000000000000000000000020170307Pacific Financial Advisors    33N000014130223000023394900          026300000141970350000000000000000000000000002018050100000000000012500000615000000512NNN02     0000000000000201705                          20170601
